:1000000036C000005BC0000059C0000057C00000AF
:1000100055C0000053C0000051C000004FC0000098
:100020004DC000004BC0000049C0000047C00000A8
:1000300045C0000043C0000041C000003FC00000B8
:1000400028C700003BC000004EC600007EC600006E
:1000500035C0000033C0000031C000002FC00000D8
:100060002DC000002BC000002905D306AA091124C9
:100070001FBECFEFD8E0DEBFCDBF11E0A0E0B1E002
:10008000EEE2F6E102C005900D92A432B107D9F775
:1000900022E0A4E2B1E001C01D92A738B207E1F767
:1000A00010E0CEE6D0E004C02297FE010E94020BD1
:1000B000C836D107C9F7E3D60C94150BA1CF87FD3D
:1000C0008095880F982F87FD809521E0280F382F85
:1000D000329F312D1124832F880F97FD809508952D
:1000E000FC0185859685089580E991E00895559AEB
:1000F000089580913601811145C010922801109217
:1001000027018FEF80932B0180932C0180932D0189
:1001100080932E0180932F018093300181E08093A2
:100120003101109233011092320110922A01109283
:1001300029018091780290917902892B31F485E22E
:1001400091E09093790280937802E0917602F091A9
:100150007702309721F085E291E09583848385E2F0
:1001600091E090937702809376021092350110927D
:10017000340187E091E0909326018093250181E08E
:100180008093360120E030E043E150E06CE871E01C
:1001900085E291E00E94700926E040E855E260E0C7
:1001A00070E086EC91E03FD580E027D74091460192
:1001B000309147012091480180E090E0FC01ED5A28
:1001C000FE4F408331832283039689339105B1F733
:1001D000089540914601E3E5F1E04083339681E0E4
:1001E000EC38F807D1F7809151019091520120919C
:1001F000000130910101820F931F9093520180936F
:1002000051018D3D91051CF04E5F40934601809158
:1002100046018F3F11F4109246010895E5E5F1E0A3
:100220008083339691E0EE38F907D1F708950F9364
:100230001F938091490190914A01A0914B01B09187
:100240004C01AC01BD01405A5F4061097109009148
:10025000420110914301209144013091450104175E
:1002600015072607370740F4809342019093430116
:10027000A0934401B0934501409142015091430144
:100280006091440170914501841B950BA60BB70B3F
:10029000805D9740A109B109B7FF07C0B095A0954F
:1002A000909581959F4FAF4FBF4F6627782F892F2D
:1002B0009A2F20ED37E040E050E00E94D40A822FD0
:1002C000FEDE90E01F910F91A9CF861797071CF0D3
:1002D000861B970B0895861B970B439608954F92A4
:1002E0005F926F927F92AF92BF92CF92DF92EF9226
:1002F000FF920F931F93CF93DF93809149019091C9
:100300004A01A0914B01B0914C018C019D01085E06
:10031000134021093109C0903E01D0903F01E09087
:100320004001F09041010C151D052E053F0540F0E0
:1003300080933E0190933F01A0934001B09341010F
:1003400000913E0110913F01209140013091410107
:100350006C017D01C01AD10AE20AF30AC701B60195
:1003600024E330E040E050E00E94D40AE901D901E2
:1003700024E330E00E94F00A6C197D098E099F0980
:1003800068517C4F8F4F9F4FCC24D62EE72EF82EEE
:1003900000E010E058EE452E53E0552E612C712CF4
:1003A000B801CE0192DF5C01C701B601A301920141
:1003B0000E94D40A822F83DEF501EE0FFF1FEA0DA3
:1003C000FB1DED5AFE4F82830F5F1F4F84E3D81A47
:1003D000E108F1080730110519F7DF91CF911F915E
:1003E0000F91FF90EF90DF90CF90BF90AF907F90F4
:1003F0006F905F904F900895CF93DF93EADE17DF01
:100400006EDFC0E0D0E0BE0164577E4FCE018D5A52
:100410009E4FC2D72396C933D105A9F760917A02BE
:100420008AE792E0DF91CF9188C60F931F937BD527
:100430006093490170934A0180934B0190934C0162
:1004400000914D0110914E0120914F0130915001CA
:10045000085D1F4F2F4F3F4F6017710782079307AB
:1004600088F0CADF8091490190914A01A0914B0127
:10047000B0914C0180934D0190934E01A0934F0198
:10048000B09350011F910F9108958F929F92AF9258
:10049000BF92CF92DF92EF92FF920F931F93CF9371
:1004A000DF93EC01E881F9819BB190628BB18F7D84
:1004B0008BB938852D81D32ED21ADD82AD84AA81E5
:1004C000BB812B859A848C84EC80FE807F8119858A
:1004D0000990D881C02D0981002331F0402F0D2DC6
:1004E000400F08F44FEF01C040E0042F029F012DA0
:1004F0001124C0E04C2F5C2F6C2F002CEA01CC2E75
:100500004C2D5D2F9BB900C007FF8BB9608144273C
:10051000889400C000C0002C8BB961116E0D00C022
:10052000002C9BB900C006FF8BB908F46FEF8894CC
:1005300000C000C000C08BB990FC460F00C0002C6A
:100540009BB900C005FF8BB94795889491FC460F75
:1005500000C000C0002C8BB94795889400C0002CC7
:100560009BB900C004FF8BB992FC460F4795889455
:1005700000C000C0002C8BB993FC460F00C0002CBB
:100580009BB900C003FF8BB94795889494FC460F34
:1005900000C000C0002C8BB94795889400C0002C87
:1005A0009BB900C002FF8BB995FC460F4795889414
:1005B00000C000C0002C8BB996FC460F00C0002C78
:1005C0009BB900C001FF8BB94795889497FC460FF3
:1005D00000C000C0002C8BB94795889400C0002C47
:1005E0009BB900C000FF8BB9E194E70E00C000C0CA
:1005F00000C0002C8BB9042F00C000C09BB900C004
:1006000007FF8BB962814427889400C000C0002C8A
:100610008BB961116F0D00C0002C9BB900C006FFA3
:100620008BB908F46FEF889400C000C000C08BB98C
:1006300080FC460F00C0002C9BB900C005FF8BB9A1
:100640004795889481FC460F00C000C0002C8BB9F0
:100650004795889400C0002C9BB900C004FF8BB95B
:1006600082FC460F4795889400C000C0002C8BB9CF
:1006700083FC460F00C0002C9BB900C003FF8BB960
:100680004795889484FC460F00C000C0002C8BB9AD
:100690004795889400C0002C9BB900C002FF8BB91D
:1006A00085FC460F4795889400C000C0002C8BB98C
:1006B00086FC460F00C0002C9BB900C001FF8BB91F
:1006C0004795889487FC460F00C000C0002C8BB96A
:1006D0004795889400C0002C9BB900C000FF8BB9DF
:1006E000EA0DF11D8894042F00C000C0002C8BB9C6
:1006F000F194F10E00C0002C9BB900C007FF8BB92C
:1007000061814427889400C000C0002C8BB961111E
:100710006D0D00C0002C9BB900C006FF8BB908F41A
:100720006FEF889400C000C000C08BB920FD460F59
:1007300000C0002C9BB900C005FF8BB94795889479
:1007400021FD460F00C000C0002C8BB9479588944E
:1007500000C0002C9BB900C004FF8BB922FD460FDE
:100760004795889400C000C0002C8BB923FD460F2C
:1007700000C0002C9BB900C003FF8BB9479588943B
:1007800024FD460F00C000C0002C8BB9479588940B
:1007900000C0002C9BB900C002FF8BB925FD460F9D
:1007A0004795889400C000C0002C8BB926FD460FE9
:1007B00000C0002C9BB900C001FF8BB947958894FD
:1007C00027FD460F00C000C0002C8BB947958894C8
:1007D00000C0002C9BB900C000FF8BB9D194D30E90
:1007E000042F00C000C000C08BB9119709F08ACE59
:1007F000DF91CF911F910F91FF90EF90DF90CF90FD
:10080000BF90AF909F908F900895FF920F931F938A
:10081000CF93DF93EC01809124018F5F982F977025
:100820009093240180FD02C080E001C080E891FD2A
:100830008064947009F0806260E1F62EF80E20E08A
:1008400030E000E011E0FE01E20FF31F6285662355
:1008500029F070E0C80173D66F5F01C060E0678364
:100860004F2D469F412D11244483662311F0615082
:1008700067832F5F3F4F2330310529F7DF91CF91F9
:100880001F910F91FF900895AF92BF92CF92DF9288
:10089000EF92FF920F93CF93DF93CDB7DEB72E97F2
:1008A0000FB6F894DEBF0FBECDBF6C015A01F9013F
:1008B000DC011C968C917A8369835C834B839081E5
:1008C0009B8791819C8792819D87813021F4CE0105
:1008D00001969BDF06C01A86198618861F821E8223
:1008E0001D8289819A818E0D911D9A8389830023AF
:1008F00019F083E08E0D01C080E08E8720D3F601D1
:1009000027853089621B730B6A307105B8F3F89440
:10091000CE010196BADD20EE31E0D50161D6F4E0DA
:100920009695879577956795FA95D1F720E030E011
:100930004AE9A49E212DB49E200D311D1124620F81
:10094000731F811D911D693EF3E07F0781059105AD
:10095000A8F1DC01CB01885E9340A109B10972E0E6
:10096000B695A795979587957A95D1F740E050E091
:1009700027E0829F412D929F400D511D112420910F
:10098000C50130E0280F391F240F351F8091640204
:1009900090916502A0916602B0916702432F55279E
:1009A000840F951FA11DB11D809364029093650271
:1009B000A0936602B09367022093C5017894BFD2DA
:1009C000D60150967C936E931F972E960FB6F8948F
:1009D000DEBF0FBECDBFDF91CF910F91FF90EF90A3
:1009E000DF90CF90BF90AF900895EF92FF920F935A
:1009F000E12CF12C00E048DF0F91FF90EF9008957B
:100A0000EF92FF920F93E12CF12C01E03DDF0F916B
:100A1000FF90EF900895EF92FF920F93CF93DF93A3
:100A200000D01F92CDB7DEB7AB0119821A821B82AC
:100A3000E12CF12C00E09E012F5F3F4FB90124DF34
:100A40000F900F900F90DF91CF910F91FF90EF904B
:100A5000089580EA8093460188EC809347018FEFE8
:100A6000809348010895FC01818D228D90E0805C87
:100A70009F4F821B91098F7399270895FC01918DD7
:100A8000828D981731F0828DE80FF11D858D90E0F1
:100A900008958FEF9FEF0895FC01918D828D981737
:100AA00061F0828DDF01A80FB11D5D968C91928D52
:100AB0009F5F9F73928F90E008958FEF9FEF08954F
:100AC0008AEC96E0892B41F080E090E0892B21F0C0
:100AD00061D181110C9400000895FC01848DDF0127
:100AE000A80FB11DA35ABF4F2C91848D90E00196A1
:100AF0008F739927848FA689B7892C93A089B18990
:100B00008C9180648C93938D848D981306C0028899
:100B1000F389E02D80818F7D80830895CF93DF93CB
:100B2000EC01888D8823C1F0EA89FB89808185FDED
:100B300005C0A889B9898C9186FD0EC00FB607FC47
:100B4000F5CF808185FFF2CFA889B9898C9185FF87
:100B5000EDCFCE01C2DFE8CFDF91CF910895CF92E4
:100B6000DF92FF920F931F93CF93DF931F92CDB726
:100B7000DEB76C0181E0D60158968C9358975B964E
:100B80009C915B975C968C915C97981307C05096EC
:100B9000ED91FC915197808185FD2DC0F601038D6B
:100BA00010E00F5F1F4F0F731127F02EF601848D99
:100BB000F81210C00FB607FCF9CFD6015096ED9190
:100BC000FC915197808185FFF1CFC601698385DF54
:100BD0006981ECCF838DE80FF11DE35AFF4F6083ED
:100BE000D6015B960C935B975296ED91FC915397CF
:100BF000808180620CC0D6015696ED91FC9157978A
:100C000060835096ED91FC91519780818064808340
:100C100081E090E00F90DF91CF911F910F91FF90B5
:100C2000DF90CF900895BF92CF92DF92EF92FF9224
:100C3000CF93DF93EC016A017B01B22EE889F98939
:100C400082E08083411581EE58076105710599F0B6
:100C500060E079E08DE390E0A701960183D4215014
:100C60003109410951095695479537952795211521
:100C700080E1380790F0E889F989108260E874E82B
:100C80008EE190E0A70196016DD421503109410910
:100C900051095695479537952795EC85FD85308305
:100CA000EE85FF852083188EEC89FD89B082EA8964
:100CB000FB89808180618083EA89FB8980818860EB
:100CC0008083EA89FB89808180688083EA89FB8947
:100CD00080818F7D8083DF91CF91FF90EF90DF90B7
:100CE000CF90BF9008951F920F920FB60F921124CC
:100CF0002F938F939F93EF93FF93E091D601F09101
:100D0000D7018081E091DC01F091DD0182FD12C00C
:100D100090818091DF018F5F8F732091E0018217B6
:100D200051F0E091DF01F0E0EA53FE4F958F8093A0
:100D3000DF0101C08081FF91EF919F918F912F91F1
:100D40000F900FBE0F901F9018951F920F920FB625
:100D50000F9211242F933F934F935F936F937F9341
:100D60008F939F93AF93BF93EF93FF9386EC91E0A4
:100D7000B4DEFF91EF91BF91AF919F918F917F91E1
:100D80006F915F914F913F912F910F900FBE0F90F8
:100D90001F90189586EC91E066DE21E0892B09F41E
:100DA00020E0822F08951092C9011092C80188EEA8
:100DB00093E0A0E0B0E08093CA019093CB01A093B0
:100DC000CC01B093CD0187E191E09093C70180936E
:100DD000C60185EC90E09093D3018093D20184EC1E
:100DE00090E09093D5018093D40180EC90E09093B3
:100DF000D7018093D60181EC90E09093D901809344
:100E0000D80182EC90E09093DB018093DA0186ECCC
:100E100090E09093DD018093DC011092DF0110924D
:100E2000E0011092E1011092E2010895CF92DF9269
:100E3000EF92FF920F931F93CF93DF937C016A0190
:100E4000EB0100E010E00C151D0571F06991D70170
:100E5000ED91FC910190F081E02DC7010995892B5E
:100E600019F00F5F1F4FEFCFC801DF91CF911F9196
:100E70000F91FF90EF90DF90CF900895089582D06A
:100E8000FDDF37D9C0E6D5E0D0DA2097E9F318DEE8
:100E9000FBCF1F920F920FB60F9211242F933F9307
:100EA0008F939F93AF93BF9380916402909165025B
:100EB000A0916602B09167023091630223E0230F94
:100EC0002D3720F40196A11DB11D05C026E8230F82
:100ED0000296A11DB11D209363028093640290933A
:100EE0006502A0936602B0936702809168029091B8
:100EF0006902A0916A02B0916B020196A11DB11D19
:100F00008093680290936902A0936A02B0936B0287
:100F1000BF91AF919F918F913F912F910F900FBEF5
:100F20000F901F9018952FB7F894609164027091FC
:100F3000650280916602909167022FBF08953FB7C6
:100F4000F8948091680290916902A0916A02B09130
:100F50006B0226B5A89B05C02F3F19F00196A11D75
:100F6000B11D3FBF6627782F892F9A2F620F711D01
:100F7000811D911D42E0660F771F881F991F4A95BA
:100F8000D1F70895789484B5826084BD84B581607A
:100F900084BD85B5826085BD85B5816085BDEEE681
:100FA000F0E0808181608083E1E8F0E01082808160
:100FB00082608083808181608083E0E8F0E08081CE
:100FC00081608083E1EBF0E0808184608083E0EBEE
:100FD000F0E0808181608083EAE7F0E080818460D6
:100FE0008083808182608083808181608083808132
:100FF000806880831092C100089580930201089553
:101000008F929F92AF92BF92EF92FF920F931F9396
:10101000CF93DF93EC01188219821A824423A9F13D
:10102000E0E0F0E08B010A5F1F4F7B0189E0E80EF2
:10103000F11C842E912CA12CB12CD801AE0FBF1F16
:101040002C91D701AE0FBF1F6C912223D1F06623E4
:10105000C1F030E040E050E02F5F3F4F4F4F5F4F17
:1010600070E080E090E06F5F7F4F8F4F9F4F44D2E2
:101070009B01AC01C501B4013FD2DE01AE0FBF1F21
:101080008C933196E330F105C1F6CE01DF91CF911B
:101090001F910F91FF90EF90BF90AF909F908F9016
:1010A0000895CF92DF92EF92FF92CF93DF93EC01FE
:1010B00080917002909171029C012F5F3F4F30939D
:1010C0007102209370028617970784F12CDF9B0131
:1010D000AC01E0917002F091710288EE93E0E89F1C
:1010E000B001E99F700DF89F700D1124882777FDDE
:1010F0008095982FC0906C02D0906D02E0906E02A7
:10110000F0906F022C193D094E095F092BD23A83EA
:101110002983109271021092700205DF60936C02B5
:1011200070936D0280936E0290936F02DF91CF9166
:10113000FF90EF90DF90CF9008958F929F92AF92A3
:10114000BF92EF92FF920F931F93CF93DF9300D044
:101150001F92CDB7DEB78C01F62EF8018381948102
:10116000A581B681892B8A2B8B2BC9F0E8DE809074
:10117000720290907302A0907402B0907502681988
:1011800079098A099B09D80113968D909D90AD909D
:10119000BC901697681579058A059B05F0F2CFDE9D
:1011A000609372027093730280937402909375023D
:1011B000D8011B96ED91FC911C97309751F0D80106
:1011C00017964D915D916D917C911A978F2D099590
:1011D000F82EA0907802B0907902A114B10449F1E0
:1011E000F501E484D80111968D919C911297843673
:1011F000910508F41486D501ED91FC9182809380CD
:101200004F2DB501CE010196FBDEF50145855685D2
:10121000628173819E012F5F3F4FC501F4010995E3
:10122000D5011C96EC921C971496AD90BC90159726
:10123000D4CF69E170E0C80134DF0F900F900F90B8
:10124000DF91CF911F910F91FF90EF90BF90AF90E2
:101250009F908F900895CF92DF92EF92FF920F931D
:101260001F93CF93DF93EC014423E9F061157105DF
:1012700071F19B0140E050E060E472E48FE090E0A7
:1012800093D1CB80DC80ED80FE8089019A010C1522
:101290001D052E053F0510F4970186010B831C8365
:1012A0002D833E8314C06115710569F09B0140E0F8
:1012B00050E060E472E48FE090E076D12B833C83D1
:1012C0004D835E8304C01B821C821D821E82DF91BF
:1012D000CF911F910F91FF90EF90DF90CF900895E5
:1012E000CF92DF92EF92FF920F931F93CF93DF93F2
:1012F000EC016B018A017901121613061CF07A01C8
:1013000000E010E0E881F9810480F581E02DCE0154
:101310000995C801880F991F800F911F8C0D9D1D85
:101320009B838A83FE86ED86E881F9810284F385BA
:10133000E02DCE01099541E0BC018AE792E08BDF08
:10134000CE01DF91CF911F910F91FF90EF90DF9031
:10135000CF9008958FEF80937A0210927C021092C2
:101360007B0210928602109285028FEF9FEFDC01C4
:101370008093810290938202A0938302B0938402AF
:101380000895FC012081222321F0269F212D09F0C0
:101390002F5FFC0120830895FF920F931F93CF933B
:1013A000DF9300D000D0CDB7DEB7FC018B014081C8
:1013B000F1805281842F8F71880F880F880F282F1A
:1013C00035E5239F212D1124342F3074942F9072F2
:1013D00047FD25C031110EC0911106C0822F8095A6
:1013E0008B832A8319823FC08BEA8B832B5A2A83F3
:1013F000198239C091110DC0382F4AEA349F312D1E
:1014000011249BEA931B9B8325552A83198280E034
:101410002AC01B8280E0822F80958A8312C03111FE
:1014200012C091110BC01B82282F3AEA239F212D55
:1014300011248BEA821B8A832B5A03C02B831A82C6
:101440002095298310C0911106C085E5820F8B83FA
:101450001A828BEA06C08BEA820F8B831A8280E0A5
:1014600085E5821B89832FEFF216E9F06F2DCE01FF
:1014700003965C8386DF6F2DCE01029682DF6F2D8F
:10148000CE0101967EDF11246F2D6095669F612D40
:1014900011248B81860F8B838A81860F8A838981B1
:1014A000860F89835C815F3FB1F0F12C2F2D55238E
:1014B00021F0559F212D09F02F5FF22E622FCE01D2
:1014C00003965FDF6F2DCE0102965BDF6F2DCE019D
:1014D000019657DF11248B81F80180838A818183F3
:1014E000898182830F900F900F900F90DF91CF91A1
:1014F0001F910F91FF900895DB018F939F9376D0FA
:10150000BF91AF91A29F800D911DA39F900DB29F9F
:10151000900D11240895AA1BBB1B51E107C0AA1FFF
:10152000BB1FA617B70710F0A61BB70B881F991F84
:101530005A95A9F780959095BC01CD01089597FB28
:10154000072E16F4009406D077FD08D0E4DF07FCE0
:1015500005D03EF4909581959F4F089570956195C3
:101560007F4F0895A1E21A2EAA1BBB1BFD010DC0DF
:10157000AA1FBB1FEE1FFF1FA217B307E407F50743
:1015800020F0A21BB30BE40BF50B661F771F881F1F
:10159000991F1A9469F760957095809590959B01B5
:1015A000AC01BD01CF010895052E97FB16F4009400
:1015B0000FD057FD05D0D6DF07FC02D046F408C097
:1015C00050954095309521953F4F4F4F5F4F08956F
:1015D00090958095709561957F4F8F4F9F4F08959F
:1015E00015D0B7FF0895821B930B08950FD0A59FC8
:1015F000900DB49F900DA49F800D911D112408950E
:10160000EE0FFF1F0590F491E02D0994A29FB00109
:10161000B39FC001A39F700D811D1124911DB29F26
:0E162000700D811D1124911D0895F894FFCFC7
:10162E000A000100000000F504000577000B0570AC
:10163E0000740000000000AF05160733054C053E90
:04164E00058E050000
:00000001FF
